:100000000C943A010C9459010C9459010C94590127
:100010000C9459010C9459010C9459010C945901F8
:100020000C9459010C9459010C9459010C945901E8
:100030000C9459010C9459010C9459010C945901D8
:100040000C9459010C9459010C9459010C945901C8
:100050000C9459010C948A080C9459010C94590180
:100060000C9459010C9459010C94D5010C940B0279
:100070000C9459010C9459010C9459010C94590198
:100080000C9459010C9459010C9459010C94590188
:100090000C9459010C945901000000000000005F0D
:1000A00000000003000300143E143E14242A7F2A9B
:1000B000124333086661364955225000050300009B
:1000C000001C2241000041221C0014083E081408B4
:1000D000083E0808005030000008080808080060C2
:1000E00060000020100804023E5149453E00040211
:1000F0007F00426151494622414949361814127F16
:100100001027454545393E494949320101710907E2
:100110003649494936264949493E003636000000ED
:10012000563600000814224100141414141400411F
:1001300022140802015109063E4159555E7E090903
:10014000097E7F494949363E414141227F41414133
:100150003E7F494949417F090909013E4141493AE8
:100160007F0808087F00417F4100304040403F7FCA
:10017000081422417F404040407F020C027F7F02F2
:1001800004087F3E4141413E7F090909061E2121A5
:10019000215E7F09090976264949493201017F011B
:1001A000013F4040403F1F2040201F7F2010207F04
:1001B00041221C224107087008076151494543004C
:1001C0007F41000002040810200000417F0004026B
:1001D0000102044040404040000102040020545409
:1001E00054787F4444443838444444443844444474
:1001F0007F385454541804047E0505085454543C64
:100200007F0804047800447D40002040443D007F86
:100210001028440000417F40007C047804787C086A
:1002200004047838444444387C1414140808141422
:10023000147C007C080404485454542004043F44B3
:10024000443C4040207C1C2040201C3C4030403C32
:1002500044281028440C5050503C4464544C4400F2
:100260000836414100007F0000414136080002018C
:100270000204020011241FBECFEFD0E2DEBFCDBFCB
:1002800012E0A0E0B1E0EAE5F5E200E00BBF02C059
:1002900007900D92A631B107D9F714E0A6E1B2E0BC
:1002A00001C01D92AB34B107E1F70E94ED080C9438
:1002B000AB120C940000FB01E80FF91F319780810D
:1002C00008956150704022E06030720748F4FC01EC
:1002D000E60FF71F4F3F19F48EEF80830895408398
:1002E0000895EF92FF920F931F937B018C019B0166
:1002F000AC0194E0220F331F441F551F9A95D1F78C
:1003000060E072E18AE790E00E947B0F215030406C
:10031000404050401092C800BB27A52F942F832F38
:100320008093CD002093CC0080EAE81686E8F8069A
:1003300081E0080780E0180711F486E20AC080E92E
:10034000E81680EDF80683E0080780E0180719F446
:100350008EE08093CA001F910F91FF90EF90089557
:10036000909338028093370288E48093C90060EA52
:1003700076E881E090E00E9471011092CE0008952D
:10038000109217021092160260EA76E881E090E07F
:100390000E947101E9ECF0E0808180668083109218
:1003A000CE0008951092C90008951F920F920FB6C3
:1003B0000F920BB60F9211242F938F939F93EF936D
:1003C000FF938091160290911702E0913702F0910D
:1003D0003802E80FF91F20812093CE0001969093F8
:1003E000170280931602805092404CF08FEF9FEFDF
:1003F000909317028093160288E48093C900FF91BE
:10040000EF919F918F912F910F900BBE0F900FBE88
:100410000F901F9018951F920F920FB60F920BB668
:100420000F9211242F933F934F935F936F937F937A
:100430008F939F93AF93BF93EF93FF938091160297
:10044000909117022FEF8F3F920769F460EA76E8E8
:1004500081E090E00E9471011092CE00109217028C
:100460001092160213C0892B89F460E970ED83E0C5
:1004700090E00E94710180E68093C9001092CE0046
:1004800081E090E09093170280931602FF91EF9124
:10049000BF91AF919F918F917F916F915F914F919C
:1004A0003F912F910F900BBE0F900FBE0F901F909A
:1004B000189593E89093B00091E09093B1008093E9
:1004C000B30008959C0190933E0280933D0286E321
:1004D00090E0809300402115310589F480EF90E091
:1004E00090933A028093390280E491E090933C0229
:1004F00080933B0288E490E0809300413BC0213030
:10050000310589F480E491E090933A0280933902B6
:1005100080EF90E090933C0280933B0288EE90E065
:100520008093004127C02230310589F480EF90E0AC
:1005300090933A028093390280E491E090933C02D8
:1005400080933B0288E890E08093004113C0233001
:10055000310581F480E491E090933A02809339026E
:1005600080EF90E090933C0280933B0288E290E021
:10057000809300418AE290E08093004020E030E0E8
:1005800030930041209300418091390290913A02CA
:10059000019790930041809300418BE290E080931B
:1005A0000040309300412093004180913B029091A4
:1005B0003C020197909300418093004108951F935E
:1005C000682F873718F010E066E711C0883010F404
:1005D00068E00CC08D3310F010E009C08F3110F0CE
:1005E00011E005C0803110F012E001C013E081EB92
:1005F00090E0809300401093004170E0882777FDE1
:100600008095982F0E94D40C9B01AC0160E070E0B3
:1006100080EF94E40E94F80B0E94220A70E002C06E
:10062000759567951A95E2F7609300411F910895BB
:100630000F931F93DF93CF93CDB7DEB728970FB6F5
:10064000F894DEBF0FBECDBF29833A834B835C8312
:100650006D837E838F83988769817A812B813C812A
:10066000ED81FE814F8158858AE290E080930040C1
:10067000709300416093004130930041209300410A
:100680008BE290E080930040F0930041E0930041C2
:1006900050930041409300418CE290E080930040F1
:1006A0002F5F3F4F261B370B4F5F5F4F4E1B5F0B7C
:1006B00024173507C8F4842F877090E0829FB0011B
:1006C000839F700D929F700D1124F3E0569547950E
:1006D000FA95E1F7842F90E0829FF001839FF00D5F
:1006E000929FF00D112418C0822F877090E0849F94
:1006F000B001859F700D949F700D1124E3E0369535
:100700002795EA95E1F7822F90E0849FF001859F7D
:10071000F00D949FF00D1124862F877005C0109363
:1007200000410093004181508823C9F7CB0123E0A9
:10073000969587952A95E1F78E0F9F1F21C01093FC
:100740000041009300411093004100930041109339
:100750000041009300411093004100930041109329
:100760000041009300411093004100930041109319
:100770000041009300411093004100930041019714
:100780000097E9F628960FB6F894DEBF0FBECDBFEE
:10079000CF91DF911F910F910895EF92FF920F93E8
:1007A0001F93DF93CF93CDB7DEB728970FB6F8949A
:1007B000DEBF0FBECDBF29833A834B835C836D833D
:1007C0007E838F83988729813A81AB81BC81ED80BC
:1007D000FE806F8178858AE290E0809300403093BC
:1007E000004120930041B0930041A09300418BE26F
:1007F00090E080930040F0920041E09200417093BD
:100800000041609300418CE290E0809300400FC073
:10081000F801819191918F01909300418093004163
:100820004F5F5F4F6417750798F72F5F3F4FA21711
:10083000B30710F0A701F6CF28960FB6F894DEBFE5
:100840000FBECDBFCF91DF911F910F91FF90EF9021
:1008500008950F931F93DF93CF93CDB7DEB72897FB
:100860000FB6F894DEBF0FBECDBF109240021092BB
:100870003F021092420210924102209139023091BF
:100880003A022150304080913B0290913C02019706
:100890001A821982422F3C832B831E821D829887E5
:1008A0008F83009145021091460229813A815C8133
:1008B0006D817E8198850E94180328960FB6F89462
:1008C000DEBF0FBECDBFCF91DF911F910F91089575
:1008D00086E08093750080E8809374003F9A249AA4
:1008E00080ED97E00197F1F7479880E49CE9019744
:1008F000F1F7479A80EB94E028EC30E0F90131976A
:10090000F1F70197D9F788E290E08093004081E108
:1009100090E08093004088E592E028EC30E0F90117
:100920003197F1F70197D9F741E050E08BEC90E077
:10093000809300404093004180EC90E08093004021
:1009400088E096E2909300418093004120E130E0FE
:1009500081EC90E0809300402093004185EC90E092
:10096000809300408EE395E3909300418093004193
:1009700025EB30E087EC90E080930040209300412D
:1009800086EF90E0809300404093004180E090E04B
:10099000909300418093004125E530E08AE390E0A8
:1009A000809300402093004181E090E00E94620229
:1009B0000E9429041092400210923F0210924202BB
:1009C0001092410210924602109245028FEF9FEF63
:1009D000909344028093430289E290E08093004028
:1009E00084EF91E028EC30E0F9013197F1F70197BD
:1009F000D9F780E090E025E330E020930040809339
:100A0000004180916A00806280936A002C9A089568
:100A1000CF92DF92EF92FF920F931F93CF93DF93CA
:100A2000982F40913F02509140028A010C5F1F4F66
:100A300020914102309142028A30A9F41092400282
:100A400010923F02285F3F4F3093420220934102B1
:100A500080913B0290913C022817390708F48AC024
:100A60000E94290487C080528F3508F083C0E901B5
:100A7000279685E09802F0011124E850F0408BE2BF
:100A800090E0809300403093004120930041D09348
:100A90000041C0930041BAE2CB2ED12CACE2EA2E49
:100AA000F12C29C0C0920040509300414093004176
:100AB0005093004140930041E0920040B491B9014D
:100AC000A1E013C08A2F8B2329F0809143029091DB
:100AD000440204C0809145029091460290930041E7
:100AE000809300416F5F7F4FAA0FC617D70750F75B
:100AF00031964F5F5F4F04171507A0F68AE290E02A
:100B00008093004050930041409300415093004136
:100B1000409300418CE290E0809300400AC08091B5
:100B200045029091460290930041809300412F5FCF
:100B30003F4FC217D30798F780913F029091400230
:100B400006969093400280933F02059620913902C9
:100B500030913A028217930768F010924002109287
:100B60003F02809141029091420208969093420286
:100B700080934102DF91CF911F910F91FF90EF90F1
:100B8000DF90CF9008951F93CF93DF93EC0110E097
:100B900003C00E9408051F5FFE01E10FF11D808167
:100BA0008823B9F7DF91CF911F9108959093400268
:100BB00080933F02709342026093410208959093A4
:100BC0004402809343027093460260934502089565
:100BD0001F93CF93DF93EC017093400260933F0229
:100BE000509342024093410210E003C00E94080566
:100BF0001F5FFE01E10FF11D80818823B9F7DF91AE
:100C0000CF911F910895AC012091260230912702C7
:100C1000AA27BB27A81BB90BE0E002C0EF5F9B012E
:100C2000B9016A0F7B1FCB01840F951F84179507AD
:100C3000A8F7309327022093260280912902882367
:100C400011F4EE23C1F0EA3014F480E307C0809180
:100C50002802882311F487E501C087E38E0FE09115
:100C60001802F09119028193F0931902E09318028F
:100C700081E08093290208950E94080508954F920B
:100C80005F926F927F928F929F92AF92BF92CF921C
:100C9000DF92EF92FF920F931F93DF93CF93CDB725
:100CA000DEB723E1E22EF12CEC0EFD1EF701A19040
:100CB000B1907F019AE1892E92E0992E55245394A8
:100CC0008DE2482E34010894611C711CF9C008940F
:100CD000A11CB11C853219F00E940805F1C0F50174
:100CE00091915F01903311F0CC2404C091915F0188
:100CF000CC24C394892F80538A3010F0DD240FC098
:100D0000DD2409C08D2D880F880FD80EDD0CD20E82
:100D1000F50191915F01292F20532A3098F3909289
:100D2000190280921802109229029436D9F0953651
:100D300084F4983509F45DC099353CF4992309F49D
:100D4000C4C0953209F052C08CC0933609F04EC031
:100D500073C0953739F0983709F44BC0933709F0D1
:100D600045C077C0F701808141818093260240937E
:100D70002702943691F4282F342F37FF0EC088278E
:100D80009927821B930B909327028093260240920F
:100D90001A02709219026092180280E197E20E9492
:100DA000030688EE93E00E94030684E690E00E942A
:100DB00003068AE090E00E940306909126029A3092
:100DC000ACF1809128028823A9F187E322E030E08A
:100DD000E20EF31E890FE0911802F091190281933F
:100DE000F0931902E0931802509229020AE112E0EE
:100DF0003FC010E0983509F411E010932802F70184
:100E000080819181909327028093260280E090E177
:100E10000E94030680E091E00E94030680E190E0DA
:100E20000E940306909126029A3014F480E3CECFFC
:100E3000112359F687E5CACFF701808180931A0202
:100E4000709219026092180222E030E0E20EF31E66
:100E50000EC0F7010081118122E030E0E20EF31EA6
:100E600007C090931A0270921902609218028401CE
:100E7000E0911802F0911902108210931902009368
:100E80001802F80101C0DA948191882311F01D1431
:100E9000D4F3F0931902E093180208C0CC2011F4A7
:100EA00080E201C080E30E940805DA941D14B4F3C7
:100EB00002C00E940805F80181918F018823C9F7BB
:100EC000F5018081882309F002CFCF91DF911F9136
:100ED0000F91FF90EF90DF90CF90BF90AF909F90D9
:100EE0008F907F906F905F904F9008956F98779A52
:100EF00087B1837C87B988B18C6388B96F98779AFA
:100F000087B1837C87B988B18C6388B9EAE6F0E061
:100F10008081856880830895679919C080912A022D
:100F200090912B02892B99F4809134029091350293
:100F3000892B69F481E090E090932B0280932A0240
:100F4000909335028093340221E030E012C0679B19
:100F50000EC080912A0290912B02892B41F01092B1
:100F60002B0210922A02109235021092340220E0D5
:100F700030E0C9010895329919C080912C029091F6
:100F80002D02892B99F48091340290913502892B9E
:100F900069F481E090E090932D0280932C0290936D
:100FA00035028093340221E030E012C0329B0EC043
:100FB00080912C0290912D02892B41F010922D02EC
:100FC00010922C02109235021092340220E030E090
:100FD000C9010895349919C080912E0290912F0271
:100FE000892B99F48091340290913502892B69F410
:100FF00081E090E090932F0280932E02909335022F
:101000008093340221E030E012C0349B0EC0809106
:101010002E0290912F02892B41F010922F021092F4
:101020002E02109235021092340220E030E0C90105
:101030000895339919C08091300290913102892B23
:1010400099F48091340290913502892B69F481E002
:1010500090E0909331028093300290933502809318
:10106000340221E030E012C0339B0EC08091300288
:1010700090913102892B41F010923102109230028E
:10108000109235021092340220E030E0C901089538
:10109000359919C08091320290913302892B99F4CD
:1010A0008091340290913502892B69F481E090E0BF
:1010B00090933302809332029093350280933402EE
:1010C00021E030E012C0359B0EC080913202909139
:1010D0003302892B41F010923302109232021092A7
:1010E00035021092340220E030E0C90108953599AC
:1010F00009C08091340290913502892B19F421E0C6
:1011000030E006C0109235021092340220E030E048
:10111000C90108951F920F920FB60F9211242F93B9
:101120003F938F939F938CB190E084FD93E085FF74
:1011300002C081E0982780913602891B282F33272F
:1011400027FD309520FF0FC0909336028091490211
:1011500090914A02019722703070820F931F9093F2
:101160004A02809349029F918F913F912F910F9056
:101170000FBE0F901F9018952091490230914A029E
:10118000C9018170907090934A0280934902C9010D
:10119000880F991F880F991F820F931F85950895B7
:1011A000E1E6F0E080E8808310826C986D98749A94
:1011B000759A82E084BD83E085BD8DE787BDEEE64C
:1011C000F0E08081826080830E9468048BE492E07A
:1011D0000E94B0010E94760708956F927F928F92CD
:1011E0009F92AF92BF92CF92DF92EF92FF920F93B6
:1011F0001F93DF93CF93CDB7DEB728970FB6F89440
:10120000DEBF0FBECDBF0E94D008EBE4F2E011922A
:1012100084E0EB34F807D9F778940E94C001FAEF24
:101220006F2E712C812CE2E09E2E71E0A72EB12C46
:1012300065E0C62ED12CCC0EDD1E50E0E52E51E02F
:10124000F52E8E010F5F1F4F0E94BB07892B21F1E6
:1012500080914702909148020A96909348028093A9
:10126000470297FF04C010924802109247028091F3
:101270004702909148028F3F910524F070924802F6
:101280006092470260910B0170910C018BE492E037
:10129000409147020E9461010E94EA07892B21F1D7
:1012A00080914702909148020A9790934802809358
:1012B000470297FF04C010924802109247028091A3
:1012C0004702909148028F3F910524F070924802A6
:1012D0006092470260910B0170910C018BE492E0E7
:1012E000409147020E9461010E941908892B39F13F
:1012F00080910B0190910C01019690930C018093C9
:101300000B011816190624F0B0920C01A0920B01E3
:1013100080910B0190910C018F3F910524F09092E8
:101320000C0180920B0160910B0170910C018BE418
:1013300092E00E945B0180934702109248020E9453
:101340004808892B39F180910B0190910C0101978C
:1013500090930C0180930B011816190624F0B0929B
:101360000C01A0920B0180910B0190910C018F3F19
:10137000910524F090920C0180920B0160910B0179
:1013800070910C018BE492E00E945B018093470214
:10139000109248028091070190910801A0910901E3
:1013A000B0910A0189839A83AB83BC838D839E832A
:1013B000AF83B88700D000D000D0EDB7FEB731962C
:1013C000ADB7BEB71296DC92CE921197F382E2824D
:1013D00080910B0190910C01958384830E94D40F1E
:1013E000EDB7FEB73196ADB7BEB712961C930E930C
:1013F0001197F382E282809147029091480295838F
:1014000084830E94D40F8DB79EB706960FB6F894CA
:101410009EBF0FBE8DBFC60162E370E042E350E0A5
:101420000E94E80585E091E064E670E042E350E068
:101430000E94E805C80166E970E042E350E00E94BE
:10144000E80502CFEF92FF920F931F937B018C016F
:1014500020E030E040E05FE40E94A40C88238CF0A0
:10146000C801B70120E030E040E05FE40E949A0B41
:101470000E94320D9B01AC0120503040404050484A
:1014800006C0C801B7010E94320D9B01AC01B90131
:10149000CA011F910F91FF90EF900895A0E0B0E076
:1014A000E4E5FAE00C949D0FDC012B01FA019C911C
:1014B000923008F439C1EB018881823008F433C1DD
:1014C000943069F4843009F02FC111969C911197E2
:1014D0008981981709F428C1ADE0B1E025C18430B5
:1014E00009F421C18230A9F4923009F01DC19A019A
:1014F000AD0188E0EA010990AE01E90109929E017F
:101500008150C1F7E201898111969C9189238183E1
:1015100008C1923009F407C112962D903C901397A0
:10152000EB018A819B811496AD90BD90CD90DC90AB
:101530001797EC80FD800E811F819101281B390BCC
:10154000B90137FF04C066277727621B730B60322F
:1015500071050CF061C0121613066CF537014801D5
:10156000062E04C096948794779467940A94D2F7D1
:1015700021E030E040E050E004C0220F331F441F60
:10158000551F6A95D2F721503040404050402E21DF
:101590003F2140235123211531054105510521F0FB
:1015A00021E030E040E050E079018A01E628F728A8
:1015B000082919293CC0232BD1F1260E371E3501ED
:1015C0004601062E04C096948794779467940A94F3
:1015D000D2F721E030E040E050E004C0220F331F9A
:1015E000441F551F6A95D2F721503040404050406B
:1015F0002A213B214C215D21211531054105510551
:1016000021F021E030E040E050E059016A01A628D5
:10161000B728C828D9280BC0821593052CF01C01C7
:10162000AA24BB24650103C0EE24FF248701119680
:101630009C91D20111968C91981709F445C0992379
:1016400039F0A80197012A193B094C095D0906C028
:10165000A60195012E193F09400B510B57FD08C0FB
:1016600011823382228224833583468357831DC0AF
:1016700081E081833382228288279927DC01821BC3
:10168000930BA40BB50B84839583A683B7830DC0FE
:10169000220F331F441F551F2483358346835783EE
:1016A000828193810197938382832481358146814E
:1016B0005781DA01C9010197A109B1098F5F9F4FD5
:1016C000AF4FBF4328F30BC0918333822282EA0CD1
:1016D000FB1C0C1D1D1DE482F5820683178383E02D
:1016E0008083248135814681578157FF1AC0C90103
:1016F000AA2797FDA095BA2F81709070A070B07046
:101700005695479537952795822B932BA42BB52B70
:1017100084839583A683B783828193810196938383
:101720008283DF0101C0D201CD01CDB7DEB7E2E196
:101730000C94B90FA0E2B0E0E0EAFBE00C94A90F32
:1017400069837A838B839C832D833E834F83588761
:10175000E9E0EE2EF12CEC0EFD1ECE010196B70154
:101760000E94AA0E8E010F5E1F4FCE010596B80192
:101770000E94AA0E8A8991E089278A8BC701B80145
:10178000AE01475E5F4F0E944E0A0E94D50DA096A3
:10179000E6E00C94C50FA0E2B0E0E1EDFBE00C94B4
:1017A000A90F69837A838B839C832D833E834F8328
:1017B0005887F9E0EF2EF12CEC0EFD1ECE010196BC
:1017C000B7010E94AA0E8E010F5E1F4FCE01059633
:1017D000B8010E94AA0EC701B801AE01475E5F4F73
:1017E0000E944E0A0E94D50DA096E6E00C94C50F0B
:1017F000A8E1B0E0EEEFFBE00C94A50F69837A83DB
:101800008B839C832D833E834F835887B9E0EB2ED7
:10181000F12CEC0EFD1ECE010196B7010E94AA0E1E
:101820008E010F5E1F4FCE010596B8010E94AA0ED1
:101830002985223008F47EC03989323010F4B8018D
:101840007CC08A859A8989278A87243011F02230C2
:1018500031F4231709F06EC06DE071E06EC03430D2
:1018600039F41D861E861F86188A1C861B8604C0B6
:10187000323021F484E08987B7015FC02B853C8535
:101880008B899C89281B390B3C872B87ED84FE8430
:101890000F851889AD88BE88CF88D88CEA14FB04E0
:1018A0000C051D0540F4EE0CFF1C001F111F2150FC
:1018B00030403C872B8720E030E040E050E080E083
:1018C00090E0A0E0B0E460E070E0EA14FB040C05F6
:1018D0001D0540F0282B392B4A2B5B2BEA18FB08FF
:1018E0000C091D09B695A79597958795EE0CFF1CD9
:1018F000001F111F6F5F7F4F6F31710531F7DA01E4
:10190000C9018F779070A070B07080349105A105E7
:10191000B10561F427FD0AC0E114F10401051105C8
:1019200029F0205C3F4F4F4F5F4F20782D873E8737
:101930004F87588BBE01675F7F4FCB010E94D50D4B
:101940006896EAE00C94C10FA8E1B0E0EAEAFCE096
:101950000C94A90F69837A838B839C832D833E83A8
:101960004F83588789E0E82EF12CEC0EFD1ECE0146
:101970000196B7010E94AA0E8E010F5E1F4FCE0185
:101980000596B8010E94AA0E8985823040F08989A7
:10199000823028F0C701B8010E94220F01C08FEFEA
:1019A0006896E6E00C94C50FA8E0B0E0EAEDFCE034
:1019B0000C94A60F9B01AC0183E08983DA01C90175
:1019C0008827B7FD83959927AA27BB27B82E21150D
:1019D00031054105510519F482E089833AC0882315
:1019E000A9F0203080E0380780E0480780E85807F9
:1019F00029F460E070E080E09FEC30C0EE24FF242A
:101A00008701E21AF30A040B150B02C079018A015F
:101A10008EE1C82ED12CDC82CB82ED82FE820F8338
:101A20001887C801B7010E94860D0197181619067C
:101A300084F4082E04C0EE0CFF1C001F111F0A9432
:101A4000D2F7ED82FE820F831887C81AD90ADC828A
:101A5000CB82BA82CE0101960E94D50D2896E9E08C
:101A60000C94C20FACE0B0E0E8E3FDE00C94AD0FE5
:101A700069837A838B839C83CE010196BE016B5F61
:101A80007F4F0E94AA0E8D81823061F1823050F129
:101A9000843021F48E81882351F12EC02F81388526
:101AA00037FD20C06E812F3131051CF06623F9F01F
:101AB00023C08EE190E0821B930B29853A854B85EC
:101AC0005C8504C056954795379527958A95D2F73A
:101AD0006623B1F050954095309521953F4F4F4F7B
:101AE0005F4F0EC020E030E040E050E009C02FEF33
:101AF0003FEF4FEF5FE704C020E030E040E050E808
:101B0000B901CA012C96E2E00C94C90FEF92FF9242
:101B10000F931F937B018C0180E0E81680E0F806AC
:101B200081E0080780E0180788F48FEFE816F104D9
:101B30000105110531F028F088E090E0A0E0B0E068
:101B400017C080E090E0A0E0B0E012C080E0E816AE
:101B500080E0F80680E0080781E0180728F088E1B7
:101B600090E0A0E0B0E004C080E190E0A0E0B0E050
:101B700020E230E040E050E0281B390B4A0B5B0BC1
:101B800004C016950795F794E7948A95D2F7F70164
:101B9000EB5EFE4F8081281B310941095109C901C3
:101BA0001F910F91FF90EF900895DF92EF92FF92B7
:101BB0000F931F93FC01E480F58006811781D1808B
:101BC0008081823048F480E090E0A0E1B0E0E82A33
:101BD000F92A0A2B1B2BA5C0843009F49FC0823040
:101BE00021F4EE24FF24870105C0E114F10401056E
:101BF000110519F4E0E0F0E096C0628173819FEF77
:101C0000623879070CF05BC022E83FEF261B370BE8
:101C10002A3131052CF020E030E040E050E02AC0CD
:101C2000B801A701022E04C0769567955795479590
:101C30000A94D2F781E090E0A0E0B0E004C0880F01
:101C4000991FAA1FBB1F2A95D2F70197A109B109B5
:101C50008E219F21A023B1230097A105B10521F07A
:101C600081E090E0A0E0B0E09A01AB01282B392B95
:101C70004A2B5B2BDA01C9018F779070A070B0708E
:101C800080349105A105B10539F427FF09C0205C16
:101C90003F4F4F4F5F4F04C0215C3F4F4F4F5F4F4F
:101CA000E0E0F0E02030A0E03A07A0E04A07A0E43E
:101CB0005A0710F0E1E0F0E079018A0127C06038AE
:101CC000710564F5FB01E158FF4FD801C7018F771B
:101CD0009070A070B07080349105A105B10539F401
:101CE000E7FE0DC080E490E0A0E0B0E004C08FE328
:101CF00090E0A0E0B0E0E80EF91E0A1F1B1F17FFDE
:101D000005C016950795F794E794319687E01695E8
:101D10000795F794E7948A95D1F705C0EE24FF2440
:101D20008701EFEFF0E06E2F679566276795902F9C
:101D30009F77D794DD24D7948E2F8695492F462BF5
:101D4000582F5D29B701CA011F910F91FF90EF90A5
:101D5000DF900895FC01DB01408151812281622FD7
:101D60006F7770E0221F2227221F9381892F880F0F
:101D7000822B282F30E0991F9927991F11969C9349
:101D8000119721153105A9F5411551056105710519
:101D900011F482E037C082E89FEF13969C938E93F4
:101DA00012979A01AB0167E0220F331F441F551FA2
:101DB0006A95D1F783E08C930DC0220F331F441F27
:101DC000551F12968D919C911397019713969C9392
:101DD0008E931297203080E0380780E0480780E437
:101DE000580758F314962D933D934D935C93179792
:101DF00008952F3F310579F44115510561057105AD
:101E000019F484E08C93089564FF03C081E08C93FF
:101E100012C01C9210C02F57304013963C932E9343
:101E2000129783E08C9387E0440F551F661F771F3E
:101E30008A95D1F7706414964D935D936D937C935E
:101E4000179708951F93DC01FB019C91923008F4D1
:101E500047C08081823008F443C0943051F4119619
:101E60001C91843099F58181682F70E0611B7109A4
:101E70003FC0843021F0923031F48230B9F1818159
:101E8000882389F12DC011961C9111978230F1F0B1
:101E900081811817D9F412962D913C911397828164
:101EA00093818217930794F028173907BCF0149692
:101EB0008D919D910D90BC91A02D248135814681FD
:101EC0005781281739074A075B0718F4112341F097
:101ED0000AC082179307A407B50740F4112319F02D
:101EE00061E070E005C06FEF7FEF02C060E070E07E
:101EF000CB011F910895A1E21A2EAA1BBB1BFD0165
:101F00000DC0AA1FBB1FEE1FFF1FA217B307E407D8
:101F1000F50720F0A21BB30BE40BF50B661F771F30
:101F2000881F991F1A9469F7609570958095909510
:101F30009B01AC01BD01CF0108952F923F924F92BA
:101F40005F926F927F928F929F92AF92BF92CF9249
:101F5000DF92EF92FF920F931F93CF93DF93CDB752
:101F6000DEB7CA1BDB0B0FB6F894DEBF0FBECDBFCA
:101F700009942A88398848885F846E847D848C849B
:101F80009B84AA84B984C884DF80EE80FD800C81A4
:101F90001B81AA81B981CE0FD11D0FB6F894DEBF87
:101FA0000FBECDBFED0108950F931F93DF93CF9325
:101FB000CDB7DEB72E970FB6F894DEBF0FBECDBFFC
:101FC0000D891E8986E08C831A8309838FEF9FE732
:101FD0009E838D839E01275E3F4FCE0101966F89C0
:101FE000788DA9010E9405102F813885020F131FDB
:101FF000F80110822E960FB6F894DEBF0FBECDBF4B
:10200000CF91DF911F910F9108952F923F924F92A0
:102010005F926F927F928F929F92AF92BF92CF9278
:10202000DF92EF92FF920F931F93DF93CF93CDB781
:10203000DEB72B970FB6F894DEBF0FBECDBF3C01C5
:102040002B015A01FC0117821682838181FD03C096
:102050006FEF7FEFC6C19AE0892E1E010894211C04
:10206000311CF3012381F20123FD859123FF81912E
:102070002F01882309F4B2C1853239F423FD8591FB
:1020800023FF81912F01853229F490E0B3010E9452
:102090002112E7CF982FFF24EE249924FFE1FF15AA
:1020A000D0F09B3269F09C3228F4903259F0933290
:1020B00091F40EC09D3249F0903369F441E024C0A0
:1020C00052E0F52A84E0F82A28C098E0F92A25C0D1
:1020D000E0E1FE2A22C0F7FC29C0892F80538A3014
:1020E00070F4F6FE05C0989C902C1124980E15C033
:1020F000E89CE02C1124E80EF0E2FF2A0EC09E328C
:1021000029F4F6FC6BC140E4F42A07C09C3619F4AC
:1021100050E8F52A02C0983649F4F20123FD959162
:1021200023FF91912F01992309F0B8CF892F85546E
:10213000833018F08052833038F444E050E0A40E2D
:10214000B51E5FE359830FC0933631F0933779F0B2
:10215000933509F056C020C0F5018081898342E0A3
:1021600050E0A40EB51E610101E010E012C0F501BF
:10217000C080D180F6FC03C06FEF7FEF02C0692DF5
:1021800070E042E050E0A40EB51EC6010E94161297
:102190008C015FE7F52214C0F501C080D180F6FC08
:1021A00003C06FEF7FEF02C0692D70E042E050E0A6
:1021B000A40EB51EC6010E940B128C0150E8F52A30
:1021C000F3FE07C01AC080E290E0B3010E94211222
:1021D000EA948E2D90E008171907A8F30EC0F601B7
:1021E000F7FC8591F7FE81916F0190E0B3010E94A9
:1021F0002112E110EA94015010400115110579F700
:10220000EAC0943611F0993669F5F7FE08C0F50179
:10221000208131814281538184E090E00AC0F50140
:10222000808191819C01442737FD4095542F82E0A5
:1022300090E0A80EB91E9FE6F92257FF09C05095FD
:102240004095309521953F4F4F4F5F4FE0E8FE2A74
:10225000CA01B901A1012AE030E00E944D12D82E36
:10226000D21840C0953729F41F2D1F7E2AE030E098
:102270001DC01F2D197F9F3661F0903720F49835CF
:1022800009F0ACC00FC0903739F0983709F0A6C0FC
:1022900004C028E030E00AC0106114FD146020E1A1
:1022A00030E004C014FD166020E132E017FF08C0E2
:1022B000F501608171818281938144E050E008C022
:1022C000F50180819181BC0180E090E042E050E026
:1022D000A40EB51EA1010E944D12D82ED2188FE770
:1022E000F82EF122F6FE0BC05EEFF522D91438F479
:1022F000F4FE07C0F2FC05C08FEEF82202C01D2DCF
:1023000001C0192DF4FE0DC0FE01ED0DF11D8081FF
:10231000803319F499EEF92208C01F5FF2FE05C060
:1023200003C08F2D867809F01F5F0F2DF3FC14C0BA
:10233000F0FE0FC01E1510F09D2C0BC09D2C9E0CA6
:10234000911A1E2D06C080E290E0B3010E94211276
:102350001F5F1E15C0F304C01E1510F4E11A01C062
:10236000EE2404FF0FC080E390E0B3010E9421122D
:1023700002FF1DC001FD03C088E790E00EC088E5A4
:1023800090E00BC0802F867891F001FF02C08BE2B5
:1023900001C080E2F7FC8DE290E0B3010E942112BF
:1023A00006C080E390E0B3010E9421129A94D914F0
:1023B000C0F3DA94F101ED0DF11D808190E0B301DD
:1023C0000E942112DD20A9F706C080E290E0B3014F
:1023D0000E942112EA94EE20C1F743CEF3016681F8
:1023E0007781CB012B960FB6F894DEBF0FBECDBF21
:1023F000CF91DF911F910F91FF90EF90DF90CF90E1
:10240000BF90AF909F908F907F906F905F904F9014
:102410003F902F900895FC0105906150704001108D
:10242000D8F7809590958E0F9F1F0895FC016150FD
:10243000704001900110D8F7809590958E0F9F1FE6
:1024400008950F931F93CF93DF938C01EB018B8142
:1024500081FF1BC082FF0DC02E813F818C819D8139
:102460002817390764F4E881F9810193F983E88337
:1024700006C0E885F985802F0995892B31F48E8176
:102480009F8101969F838E8302C00FEF1FEFC801CB
:10249000DF91CF911F910F910895FA01AA2728305B
:1024A00051F1203181F1E8946F936E7F6E5F7F4F21
:1024B0008F4F9F4FAF4FB1E03ED0B4E03CD0670F9D
:1024C000781F891F9A1FA11D680F791F8A1F911DF0
:1024D000A11D6A0F711D811D911DA11D20D009F440
:1024E00068943F912AE0269F11243019305D319382
:1024F000DEF6CF010895462F4770405D4193B3E06B
:102500000FD0C9F7F6CF462F4F70405D4A3318F011
:10251000495D31FD4052419302D0A9F7EACFB4E0C2
:10252000A6959795879577956795BA95C9F700977A
:102530006105710508959B01AC010A2E069457951B
:10254000479537952795BA95C9F7620F731F841F72
:0A255000951FA01D0895F894FFCF19
:10255A0025303364004000303030000100000000B4
:10256A000000000000000102020303030304040444
:10257A000404040404050505050505050505050506
:10258A0005050505050606060606060606060606E6
:10259A0006060606060606060606060606060606D1
:1025AA0006060606060707070707070707070707B6
:1025BA0007070707070707070707070707070707A1
:1025CA000707070707070707070707070707070791
:1025DA000707070707070707070707070707070781
:1025EA000707070707080808080808080808080866
:1025FA000808080808080808080808080808080851
:10260A000808080808080808080808080808080840
:10261A000808080808080808080808080808080830
:10262A000808080808080808080808080808080820
:10263A000808080808080808080808080808080810
:10264A000808080808080808080808080808080800
:10265A0008080808080808080808080808080808F0
:06266A0008080808080042
:00000001FF
